{
  "_format": "hh-sol-artifact-1",
  "contractName": "RandomIpfsNft",
  "sourceName": "contracts/randomNft.sol",
  "abi": [
    {
      "inputs": [
        {
          "internalType": "address",
          "name": "vrfCoordinatorV2",
          "type": "address"
        },
        {
          "internalType": "uint64",
          "name": "subscriptionId",
          "type": "uint64"
        },
        {
          "internalType": "bytes32",
          "name": "gasLane",
          "type": "bytes32"
        },
        {
          "internalType": "uint256",
          "name": "mintFee",
          "type": "uint256"
        },
        {
          "internalType": "uint32",
          "name": "callbackGasLimit",
          "type": "uint32"
        },
        {
          "internalType": "string[3]",
          "name": "dogTokenUris",
          "type": "string[3]"
        }
      ],
      "stateMutability": "nonpayable",
      "type": "constructor"
    },
    {
      "inputs": [
        {
          "internalType": "address",
          "name": "have",
          "type": "address"
        },
        {
          "internalType": "address",
          "name": "want",
          "type": "address"
        }
      ],
      "name": "OnlyCoordinatorCanFulfill",
      "type": "error"
    },
    {
      "inputs": [],
      "name": "RandomIpfsNft__AlreadyInitialized",
      "type": "error"
    },
    {
      "inputs": [],
      "name": "RandomIpfsNft__NeedMoreETHSent",
      "type": "error"
    },
    {
      "inputs": [],
      "name": "RandomIpfsNft__RangeOutOfBounds",
      "type": "error"
    },
    {
      "inputs": [],
      "name": "RandomIpfsNft__TransferFailed",
      "type": "error"
    },
    {
      "anonymous": false,
      "inputs": [
        {
          "indexed": true,
          "internalType": "address",
          "name": "owner",
          "type": "address"
        },
        {
          "indexed": true,
          "internalType": "address",
          "name": "approved",
          "type": "address"
        },
        {
          "indexed": true,
          "internalType": "uint256",
          "name": "tokenId",
          "type": "uint256"
        }
      ],
      "name": "Approval",
      "type": "event"
    },
    {
      "anonymous": false,
      "inputs": [
        {
          "indexed": true,
          "internalType": "address",
          "name": "owner",
          "type": "address"
        },
        {
          "indexed": true,
          "internalType": "address",
          "name": "operator",
          "type": "address"
        },
        {
          "indexed": false,
          "internalType": "bool",
          "name": "approved",
          "type": "bool"
        }
      ],
      "name": "ApprovalForAll",
      "type": "event"
    },
    {
      "anonymous": false,
      "inputs": [
        {
          "indexed": false,
          "internalType": "uint256",
          "name": "_fromTokenId",
          "type": "uint256"
        },
        {
          "indexed": false,
          "internalType": "uint256",
          "name": "_toTokenId",
          "type": "uint256"
        }
      ],
      "name": "BatchMetadataUpdate",
      "type": "event"
    },
    {
      "anonymous": false,
      "inputs": [
        {
          "indexed": false,
          "internalType": "uint256",
          "name": "_tokenId",
          "type": "uint256"
        }
      ],
      "name": "MetadataUpdate",
      "type": "event"
    },
    {
      "anonymous": false,
      "inputs": [
        {
          "indexed": false,
          "internalType": "enum RandomIpfsNft.Breed",
          "name": "breed",
          "type": "uint8"
        },
        {
          "indexed": false,
          "internalType": "address",
          "name": "minter",
          "type": "address"
        }
      ],
      "name": "NftMinted",
      "type": "event"
    },
    {
      "anonymous": false,
      "inputs": [
        {
          "indexed": true,
          "internalType": "uint256",
          "name": "requestId",
          "type": "uint256"
        },
        {
          "indexed": false,
          "internalType": "address",
          "name": "requester",
          "type": "address"
        }
      ],
      "name": "NftRequested",
      "type": "event"
    },
    {
      "anonymous": false,
      "inputs": [
        {
          "indexed": true,
          "internalType": "address",
          "name": "previousOwner",
          "type": "address"
        },
        {
          "indexed": true,
          "internalType": "address",
          "name": "newOwner",
          "type": "address"
        }
      ],
      "name": "OwnershipTransferred",
      "type": "event"
    },
    {
      "anonymous": false,
      "inputs": [
        {
          "indexed": true,
          "internalType": "address",
          "name": "from",
          "type": "address"
        },
        {
          "indexed": true,
          "internalType": "address",
          "name": "to",
          "type": "address"
        },
        {
          "indexed": true,
          "internalType": "uint256",
          "name": "tokenId",
          "type": "uint256"
        }
      ],
      "name": "Transfer",
      "type": "event"
    },
    {
      "inputs": [
        {
          "internalType": "address",
          "name": "to",
          "type": "address"
        },
        {
          "internalType": "uint256",
          "name": "tokenId",
          "type": "uint256"
        }
      ],
      "name": "approve",
      "outputs": [],
      "stateMutability": "nonpayable",
      "type": "function"
    },
    {
      "inputs": [
        {
          "internalType": "address",
          "name": "owner",
          "type": "address"
        }
      ],
      "name": "balanceOf",
      "outputs": [
        {
          "internalType": "uint256",
          "name": "",
          "type": "uint256"
        }
      ],
      "stateMutability": "view",
      "type": "function"
    },
    {
      "inputs": [
        {
          "internalType": "uint256",
          "name": "tokenId",
          "type": "uint256"
        }
      ],
      "name": "getApproved",
      "outputs": [
        {
          "internalType": "address",
          "name": "",
          "type": "address"
        }
      ],
      "stateMutability": "view",
      "type": "function"
    },
    {
      "inputs": [
        {
          "internalType": "uint256",
          "name": "moddedRng",
          "type": "uint256"
        }
      ],
      "name": "getBreedFromModdedRng",
      "outputs": [
        {
          "internalType": "enum RandomIpfsNft.Breed",
          "name": "",
          "type": "uint8"
        }
      ],
      "stateMutability": "pure",
      "type": "function"
    },
    {
      "inputs": [],
      "name": "getChanceArray",
      "outputs": [
        {
          "internalType": "uint256[3]",
          "name": "",
          "type": "uint256[3]"
        }
      ],
      "stateMutability": "pure",
      "type": "function"
    },
    {
      "inputs": [
        {
          "internalType": "uint256",
          "name": "index",
          "type": "uint256"
        }
      ],
      "name": "getDogTokenUris",
      "outputs": [
        {
          "internalType": "string",
          "name": "",
          "type": "string"
        }
      ],
      "stateMutability": "view",
      "type": "function"
    },
    {
      "inputs": [],
      "name": "getInitialized",
      "outputs": [
        {
          "internalType": "bool",
          "name": "",
          "type": "bool"
        }
      ],
      "stateMutability": "view",
      "type": "function"
    },
    {
      "inputs": [],
      "name": "getMintFee",
      "outputs": [
        {
          "internalType": "uint256",
          "name": "",
          "type": "uint256"
        }
      ],
      "stateMutability": "view",
      "type": "function"
    },
    {
      "inputs": [],
      "name": "getTokenCounter",
      "outputs": [
        {
          "internalType": "uint256",
          "name": "",
          "type": "uint256"
        }
      ],
      "stateMutability": "view",
      "type": "function"
    },
    {
      "inputs": [
        {
          "internalType": "address",
          "name": "owner",
          "type": "address"
        },
        {
          "internalType": "address",
          "name": "operator",
          "type": "address"
        }
      ],
      "name": "isApprovedForAll",
      "outputs": [
        {
          "internalType": "bool",
          "name": "",
          "type": "bool"
        }
      ],
      "stateMutability": "view",
      "type": "function"
    },
    {
      "inputs": [],
      "name": "name",
      "outputs": [
        {
          "internalType": "string",
          "name": "",
          "type": "string"
        }
      ],
      "stateMutability": "view",
      "type": "function"
    },
    {
      "inputs": [],
      "name": "owner",
      "outputs": [
        {
          "internalType": "address",
          "name": "",
          "type": "address"
        }
      ],
      "stateMutability": "view",
      "type": "function"
    },
    {
      "inputs": [
        {
          "internalType": "uint256",
          "name": "tokenId",
          "type": "uint256"
        }
      ],
      "name": "ownerOf",
      "outputs": [
        {
          "internalType": "address",
          "name": "",
          "type": "address"
        }
      ],
      "stateMutability": "view",
      "type": "function"
    },
    {
      "inputs": [
        {
          "internalType": "uint256",
          "name": "requestId",
          "type": "uint256"
        },
        {
          "internalType": "uint256[]",
          "name": "randomWords",
          "type": "uint256[]"
        }
      ],
      "name": "rawFulfillRandomWords",
      "outputs": [],
      "stateMutability": "nonpayable",
      "type": "function"
    },
    {
      "inputs": [],
      "name": "renounceOwnership",
      "outputs": [],
      "stateMutability": "nonpayable",
      "type": "function"
    },
    {
      "inputs": [],
      "name": "requestNft",
      "outputs": [
        {
          "internalType": "uint256",
          "name": "requestId",
          "type": "uint256"
        }
      ],
      "stateMutability": "payable",
      "type": "function"
    },
    {
      "inputs": [
        {
          "internalType": "uint256",
          "name": "",
          "type": "uint256"
        }
      ],
      "name": "s_requestIdToSender",
      "outputs": [
        {
          "internalType": "address",
          "name": "",
          "type": "address"
        }
      ],
      "stateMutability": "view",
      "type": "function"
    },
    {
      "inputs": [
        {
          "internalType": "address",
          "name": "from",
          "type": "address"
        },
        {
          "internalType": "address",
          "name": "to",
          "type": "address"
        },
        {
          "internalType": "uint256",
          "name": "tokenId",
          "type": "uint256"
        }
      ],
      "name": "safeTransferFrom",
      "outputs": [],
      "stateMutability": "nonpayable",
      "type": "function"
    },
    {
      "inputs": [
        {
          "internalType": "address",
          "name": "from",
          "type": "address"
        },
        {
          "internalType": "address",
          "name": "to",
          "type": "address"
        },
        {
          "internalType": "uint256",
          "name": "tokenId",
          "type": "uint256"
        },
        {
          "internalType": "bytes",
          "name": "data",
          "type": "bytes"
        }
      ],
      "name": "safeTransferFrom",
      "outputs": [],
      "stateMutability": "nonpayable",
      "type": "function"
    },
    {
      "inputs": [
        {
          "internalType": "address",
          "name": "operator",
          "type": "address"
        },
        {
          "internalType": "bool",
          "name": "approved",
          "type": "bool"
        }
      ],
      "name": "setApprovalForAll",
      "outputs": [],
      "stateMutability": "nonpayable",
      "type": "function"
    },
    {
      "inputs": [
        {
          "internalType": "bytes4",
          "name": "interfaceId",
          "type": "bytes4"
        }
      ],
      "name": "supportsInterface",
      "outputs": [
        {
          "internalType": "bool",
          "name": "",
          "type": "bool"
        }
      ],
      "stateMutability": "view",
      "type": "function"
    },
    {
      "inputs": [],
      "name": "symbol",
      "outputs": [
        {
          "internalType": "string",
          "name": "",
          "type": "string"
        }
      ],
      "stateMutability": "view",
      "type": "function"
    },
    {
      "inputs": [
        {
          "internalType": "uint256",
          "name": "tokenId",
          "type": "uint256"
        }
      ],
      "name": "tokenURI",
      "outputs": [
        {
          "internalType": "string",
          "name": "",
          "type": "string"
        }
      ],
      "stateMutability": "view",
      "type": "function"
    },
    {
      "inputs": [
        {
          "internalType": "address",
          "name": "from",
          "type": "address"
        },
        {
          "internalType": "address",
          "name": "to",
          "type": "address"
        },
        {
          "internalType": "uint256",
          "name": "tokenId",
          "type": "uint256"
        }
      ],
      "name": "transferFrom",
      "outputs": [],
      "stateMutability": "nonpayable",
      "type": "function"
    },
    {
      "inputs": [
        {
          "internalType": "address",
          "name": "newOwner",
          "type": "address"
        }
      ],
      "name": "transferOwnership",
      "outputs": [],
      "stateMutability": "nonpayable",
      "type": "function"
    },
    {
      "inputs": [],
      "name": "withdraw",
      "outputs": [],
      "stateMutability": "nonpayable",
      "type": "function"
    }
  ],
  "bytecode": "0x6101406040523480156200001257600080fd5b506040516200454d3803806200454d83398181016040528101906200003891906200088a565b856040518060400160405280600f81526020017f52616e646f6d2049504653204e465400000000000000000000000000000000008152506040518060400160405280600381526020017f52494e00000000000000000000000000000000000000000000000000000000008152508160009080519060200190620000bd9291906200031d565b508060019080519060200190620000d69291906200031d565b5050508073ffffffffffffffffffffffffffffffffffffffff1660808173ffffffffffffffffffffffffffffffffffffffff1660601b81525050506200013162000125620001d560201b60201c565b620001dd60201b60201c565b8573ffffffffffffffffffffffffffffffffffffffff1660a08173ffffffffffffffffffffffffffffffffffffffff1660601b815250508360e081815250508467ffffffffffffffff1660c08167ffffffffffffffff1660c01b815250508261012081815250508163ffffffff166101008163ffffffff1660e01b81525050620001c181620002a360201b60201c565b6000600881905550505050505050620009aa565b600033905090565b6000600760009054906101000a900473ffffffffffffffffffffffffffffffffffffffff16905081600760006101000a81548173ffffffffffffffffffffffffffffffffffffffff021916908373ffffffffffffffffffffffffffffffffffffffff1602179055508173ffffffffffffffffffffffffffffffffffffffff168173ffffffffffffffffffffffffffffffffffffffff167f8be0079c531659141344cd1fd0a4f28419497f9722a3daafe3b4186f6b6457e060405160405180910390a35050565b600a60009054906101000a900460ff1615620002eb576040517fddf8bf7000000000000000000000000000000000000000000000000000000000815260040160405180910390fd5b806009906003620002fe929190620003ae565b506001600a60006101000a81548160ff02191690831515021790555050565b8280546200032b9062000974565b90600052602060002090601f0160209004810192826200034f57600085556200039b565b82601f106200036a57805160ff19168380011785556200039b565b828001600101855582156200039b579182015b828111156200039a5782518255916020019190600101906200037d565b5b509050620003aa919062000415565b5090565b82805482825590600052602060002090810192821562000402579160200282015b8281111562000401578251829080519060200190620003f09291906200031d565b5091602001919060010190620003cf565b5b50905062000411919062000434565b5090565b5b808211156200043057600081600090555060010162000416565b5090565b5b808211156200045857600081816200044e91906200045c565b5060010162000435565b5090565b5080546200046a9062000974565b6000825580601f106200047e57506200049f565b601f0160209004906000526020600020908101906200049e919062000415565b5b50565b6000604051905090565b600080fd5b600080fd5b600073ffffffffffffffffffffffffffffffffffffffff82169050919050565b6000620004e382620004b6565b9050919050565b620004f581620004d6565b81146200050157600080fd5b50565b6000815190506200051581620004ea565b92915050565b600067ffffffffffffffff82169050919050565b6200053a816200051b565b81146200054657600080fd5b50565b6000815190506200055a816200052f565b92915050565b6000819050919050565b620005758162000560565b81146200058157600080fd5b50565b60008151905062000595816200056a565b92915050565b6000819050919050565b620005b0816200059b565b8114620005bc57600080fd5b50565b600081519050620005d081620005a5565b92915050565b600063ffffffff82169050919050565b620005f181620005d6565b8114620005fd57600080fd5b50565b6000815190506200061181620005e6565b92915050565b600080fd5b6000601f19601f8301169050919050565b7f4e487b7100000000000000000000000000000000000000000000000000000000600052604160045260246000fd5b62000667826200061c565b810181811067ffffffffffffffff821117156200068957620006886200062d565b5b80604052505050565b60006200069e620004a2565b9050620006ac82826200065c565b919050565b600067ffffffffffffffff821115620006cf57620006ce6200062d565b5b602082029050919050565b600080fd5b600080fd5b600067ffffffffffffffff8211156200070257620007016200062d565b5b6200070d826200061c565b9050602081019050919050565b60005b838110156200073a5780820151818401526020810190506200071d565b838111156200074a576000848401525b50505050565b6000620007676200076184620006e4565b62000692565b905082815260208101848484011115620007865762000785620006df565b5b620007938482856200071a565b509392505050565b600082601f830112620007b357620007b262000617565b5b8151620007c584826020860162000750565b91505092915050565b6000620007e5620007df84620006b1565b62000692565b90508060208402830185811115620008025762000801620006da565b5b835b818110156200085057805167ffffffffffffffff8111156200082b576200082a62000617565b5b8086016200083a89826200079b565b8552602085019450505060208101905062000804565b5050509392505050565b600082601f83011262000872576200087162000617565b5b600362000881848285620007ce565b91505092915050565b60008060008060008060c08789031215620008aa57620008a9620004ac565b5b6000620008ba89828a0162000504565b9650506020620008cd89828a0162000549565b9550506040620008e089828a0162000584565b9450506060620008f389828a01620005bf565b93505060806200090689828a0162000600565b92505060a087015167ffffffffffffffff8111156200092a5762000929620004b1565b5b6200093889828a016200085a565b9150509295509295509295565b7f4e487b7100000000000000000000000000000000000000000000000000000000600052602260045260246000fd5b600060028204905060018216806200098d57607f821691505b60208210811415620009a457620009a362000945565b5b50919050565b60805160601c60a05160601c60c05160c01c60e0516101005160e01c61012051613b3962000a1460003960008181610cc40152610ebd01526000610f9701526000610f5301526000610f7401526000610f1701526000818161089601526108ea0152613b396000f3fe6080604052600436106101815760003560e01c8063715018a6116100d1578063a51cccf31161008a578063c87b56dd11610064578063c87b56dd14610575578063e985e9c5146105b2578063ee89dab4146105ef578063f2fde38b1461061a57610181565b8063a51cccf3146104f1578063aa1524911461052e578063b88d4fde1461054c57610181565b8063715018a6146103f35780637a5caab31461040a5780638da5cb5b1461043557806395d89b4114610460578063a22cb4651461048b578063a36f573b146104b457610181565b80633af259751161013e5780635dacf5f4116101185780635dacf5f4146103235780636352211e1461034e5780636e02007d1461038b57806370a08231146103b657610181565b80633af25975146102a65780633ccfd60b146102e357806342842e0e146102fa57610181565b806301ffc9a71461018657806306fdde03146101c3578063081812fc146101ee578063095ea7b31461022b5780631fe543e31461025457806323b872dd1461027d575b600080fd5b34801561019257600080fd5b506101ad60048036038101906101a8919061274c565b610643565b6040516101ba9190612794565b60405180910390f35b3480156101cf57600080fd5b506101d86106a4565b6040516101e59190612848565b60405180910390f35b3480156101fa57600080fd5b50610215600480360381019061021091906128a0565b610736565b604051610222919061290e565b60405180910390f35b34801561023757600080fd5b50610252600480360381019061024d9190612955565b61077c565b005b34801561026057600080fd5b5061027b60048036038101906102769190612add565b610894565b005b34801561028957600080fd5b506102a4600480360381019061029f9190612b39565b610954565b005b3480156102b257600080fd5b506102cd60048036038101906102c891906128a0565b6109b4565b6040516102da9190612848565b60405180910390f35b3480156102ef57600080fd5b506102f8610a64565b005b34801561030657600080fd5b50610321600480360381019061031c9190612b39565b610b18565b005b34801561032f57600080fd5b50610338610b38565b6040516103459190612c37565b60405180910390f35b34801561035a57600080fd5b50610375600480360381019061037091906128a0565b610b63565b604051610382919061290e565b60405180910390f35b34801561039757600080fd5b506103a0610bea565b6040516103ad9190612c61565b60405180910390f35b3480156103c257600080fd5b506103dd60048036038101906103d89190612c7c565b610bf4565b6040516103ea9190612c61565b60405180910390f35b3480156103ff57600080fd5b50610408610cac565b005b34801561041657600080fd5b5061041f610cc0565b60405161042c9190612c61565b60405180910390f35b34801561044157600080fd5b5061044a610ce8565b604051610457919061290e565b60405180910390f35b34801561046c57600080fd5b50610475610d12565b6040516104829190612848565b60405180910390f35b34801561049757600080fd5b506104b260048036038101906104ad9190612cd5565b610da4565b005b3480156104c057600080fd5b506104db60048036038101906104d691906128a0565b610dba565b6040516104e8919061290e565b60405180910390f35b3480156104fd57600080fd5b50610518600480360381019061051391906128a0565b610ded565b6040516105259190612d8c565b60405180910390f35b610536610eb9565b6040516105439190612c61565b60405180910390f35b34801561055857600080fd5b50610573600480360381019061056e9190612e5c565b6110b9565b005b34801561058157600080fd5b5061059c600480360381019061059791906128a0565b61111b565b6040516105a99190612848565b60405180910390f35b3480156105be57600080fd5b506105d960048036038101906105d49190612edf565b61122e565b6040516105e69190612794565b60405180910390f35b3480156105fb57600080fd5b506106046112c2565b6040516106119190612794565b60405180910390f35b34801561062657600080fd5b50610641600480360381019061063c9190612c7c565b6112d9565b005b6000634906490660e01b7bffffffffffffffffffffffffffffffffffffffffffffffffffffffff1916827bffffffffffffffffffffffffffffffffffffffffffffffffffffffff1916148061069d575061069c8261135d565b5b9050919050565b6060600080546106b390612f4e565b80601f01602080910402602001604051908101604052809291908181526020018280546106df90612f4e565b801561072c5780601f106107015761010080835404028352916020019161072c565b820191906000526020600020905b81548152906001019060200180831161070f57829003601f168201915b5050505050905090565b60006107418261143f565b6004600083815260200190815260200160002060009054906101000a900473ffffffffffffffffffffffffffffffffffffffff169050919050565b600061078782610b63565b90508073ffffffffffffffffffffffffffffffffffffffff168373ffffffffffffffffffffffffffffffffffffffff1614156107f8576040517f08c379a00000000000000000000000000000000000000000000000000000000081526004016107ef90612ff2565b60405180910390fd5b8073ffffffffffffffffffffffffffffffffffffffff1661081761148a565b73ffffffffffffffffffffffffffffffffffffffff16148061084657506108458161084061148a565b61122e565b5b610885576040517f08c379a000000000000000000000000000000000000000000000000000000000815260040161087c90613084565b60405180910390fd5b61088f8383611492565b505050565b7f000000000000000000000000000000000000000000000000000000000000000073ffffffffffffffffffffffffffffffffffffffff163373ffffffffffffffffffffffffffffffffffffffff161461094657337f00000000000000000000000000000000000000000000000000000000000000006040517f1cf993f400000000000000000000000000000000000000000000000000000000815260040161093d9291906130a4565b60405180910390fd5b610950828261154b565b5050565b61096561095f61148a565b826116e5565b6109a4576040517f08c379a000000000000000000000000000000000000000000000000000000000815260040161099b9061313f565b60405180910390fd5b6109af83838361177a565b505050565b6060600982815481106109ca576109c961315f565b5b9060005260206000200180546109df90612f4e565b80601f0160208091040260200160405190810160405280929190818152602001828054610a0b90612f4e565b8015610a585780601f10610a2d57610100808354040283529160200191610a58565b820191906000526020600020905b815481529060010190602001808311610a3b57829003601f168201915b50505050509050919050565b610a6c611a74565b600047905060003373ffffffffffffffffffffffffffffffffffffffff1682604051610a97906131bf565b60006040518083038185875af1925050503d8060008114610ad4576040519150601f19603f3d011682016040523d82523d6000602084013e610ad9565b606091505b5050905080610b14576040517fca7e25b700000000000000000000000000000000000000000000000000000000815260040160405180910390fd5b5050565b610b33838383604051806020016040528060008152506110b9565b505050565b610b4061261b565b6040518060600160405280600a8152602001602881526020016064815250905090565b600080610b6f83611af2565b9050600073ffffffffffffffffffffffffffffffffffffffff168173ffffffffffffffffffffffffffffffffffffffff161415610be1576040517f08c379a0000000000000000000000000000000000000000000000000000000008152600401610bd890613220565b60405180910390fd5b80915050919050565b6000600854905090565b60008073ffffffffffffffffffffffffffffffffffffffff168273ffffffffffffffffffffffffffffffffffffffff161415610c65576040517f08c379a0000000000000000000000000000000000000000000000000000000008152600401610c5c906132b2565b60405180910390fd5b600360008373ffffffffffffffffffffffffffffffffffffffff1673ffffffffffffffffffffffffffffffffffffffff168152602001908152602001600020549050919050565b610cb4611a74565b610cbe6000611b2f565b565b60007f0000000000000000000000000000000000000000000000000000000000000000905090565b6000600760009054906101000a900473ffffffffffffffffffffffffffffffffffffffff16905090565b606060018054610d2190612f4e565b80601f0160208091040260200160405190810160405280929190818152602001828054610d4d90612f4e565b8015610d9a5780601f10610d6f57610100808354040283529160200191610d9a565b820191906000526020600020905b815481529060010190602001808311610d7d57829003601f168201915b5050505050905090565b610db6610daf61148a565b8383611bf5565b5050565b600b6020528060005260406000206000915054906101000a900473ffffffffffffffffffffffffffffffffffffffff1681565b600080600090506000610dfe610b38565b905060005b6003811015610e8157828510158015610e325750818160038110610e2a57610e2961315f565b5b602002015185105b15610e5457806002811115610e4a57610e49612d15565b5b9350505050610eb4565b818160038110610e6757610e6661315f565b5b602002015192508080610e7990613301565b915050610e03565b506040517f12806c9d00000000000000000000000000000000000000000000000000000000815260040160405180910390fd5b919050565b60007f0000000000000000000000000000000000000000000000000000000000000000341015610f15576040517fb90f491000000000000000000000000000000000000000000000000000000000815260040160405180910390fd5b7f000000000000000000000000000000000000000000000000000000000000000073ffffffffffffffffffffffffffffffffffffffff16635d3b1d307f00000000000000000000000000000000000000000000000000000000000000007f000000000000000000000000000000000000000000000000000000000000000060037f000000000000000000000000000000000000000000000000000000000000000060016040518663ffffffff1660e01b8152600401610fd89594939291906133c2565b602060405180830381600087803b158015610ff257600080fd5b505af1158015611006573d6000803e3d6000fd5b505050506040513d601f19601f8201168201806040525081019061102a919061342a565b905033600b600083815260200190815260200160002060006101000a81548173ffffffffffffffffffffffffffffffffffffffff021916908373ffffffffffffffffffffffffffffffffffffffff160217905550807ff873236e6cc0ecc5be1a9a35c95ee5b8d1ac4cc7bfef0cc5060391d6cc98e26b336040516110ae919061290e565b60405180910390a290565b6110ca6110c461148a565b836116e5565b611109576040517f08c379a00000000000000000000000000000000000000000000000000000000081526004016111009061313f565b60405180910390fd5b61111584848484611d62565b50505050565b60606111268261143f565b600060066000848152602001908152602001600020805461114690612f4e565b80601f016020809104026020016040519081016040528092919081815260200182805461117290612f4e565b80156111bf5780601f10611194576101008083540402835291602001916111bf565b820191906000526020600020905b8154815290600101906020018083116111a257829003601f168201915b5050505050905060006111d0611dbe565b90506000815114156111e6578192505050611229565b60008251111561121b578082604051602001611203929190613493565b60405160208183030381529060405292505050611229565b61122484611dd5565b925050505b919050565b6000600560008473ffffffffffffffffffffffffffffffffffffffff1673ffffffffffffffffffffffffffffffffffffffff16815260200190815260200160002060008373ffffffffffffffffffffffffffffffffffffffff1673ffffffffffffffffffffffffffffffffffffffff16815260200190815260200160002060009054906101000a900460ff16905092915050565b6000600a60009054906101000a900460ff16905090565b6112e1611a74565b600073ffffffffffffffffffffffffffffffffffffffff168173ffffffffffffffffffffffffffffffffffffffff161415611351576040517f08c379a000000000000000000000000000000000000000000000000000000000815260040161134890613529565b60405180910390fd5b61135a81611b2f565b50565b60007f80ac58cd000000000000000000000000000000000000000000000000000000007bffffffffffffffffffffffffffffffffffffffffffffffffffffffff1916827bffffffffffffffffffffffffffffffffffffffffffffffffffffffff1916148061142857507f5b5e139f000000000000000000000000000000000000000000000000000000007bffffffffffffffffffffffffffffffffffffffffffffffffffffffff1916827bffffffffffffffffffffffffffffffffffffffffffffffffffffffff1916145b80611438575061143782611e3d565b5b9050919050565b61144881611ea7565b611487576040517f08c379a000000000000000000000000000000000000000000000000000000000815260040161147e90613220565b60405180910390fd5b50565b600033905090565b816004600083815260200190815260200160002060006101000a81548173ffffffffffffffffffffffffffffffffffffffff021916908373ffffffffffffffffffffffffffffffffffffffff160217905550808273ffffffffffffffffffffffffffffffffffffffff1661150583610b63565b73ffffffffffffffffffffffffffffffffffffffff167f8c5be1e5ebec7d5bd14f71427d1e84f3dd0314c0f7b2291e5b200ac8c7c3b92560405160405180910390a45050565b6000600b600084815260200190815260200160002060009054906101000a900473ffffffffffffffffffffffffffffffffffffffff1690506000600854905060016008546115999190613549565b60088190555060006064846000815181106115b7576115b661315f565b5b60200260200101516115c991906135ce565b905060006115d682610ded565b90506115e28484611ee8565b6116a48360098360028111156115fb576115fa612d15565b5b8154811061160c5761160b61315f565b5b90600052602060002001805461162190612f4e565b80601f016020809104026020016040519081016040528092919081815260200182805461164d90612f4e565b801561169a5780601f1061166f5761010080835404028352916020019161169a565b820191906000526020600020905b81548152906001019060200180831161167d57829003601f168201915b5050505050611f06565b7f8a269f26b688e110e9cbd887d163dab35cae678fa353a0292de532c0cac1ecdc81856040516116d59291906135ff565b60405180910390a1505050505050565b6000806116f183610b63565b90508073ffffffffffffffffffffffffffffffffffffffff168473ffffffffffffffffffffffffffffffffffffffff1614806117335750611732818561122e565b5b8061177157508373ffffffffffffffffffffffffffffffffffffffff1661175984610736565b73ffffffffffffffffffffffffffffffffffffffff16145b91505092915050565b8273ffffffffffffffffffffffffffffffffffffffff1661179a82610b63565b73ffffffffffffffffffffffffffffffffffffffff16146117f0576040517f08c379a00000000000000000000000000000000000000000000000000000000081526004016117e79061369a565b60405180910390fd5b600073ffffffffffffffffffffffffffffffffffffffff168273ffffffffffffffffffffffffffffffffffffffff161415611860576040517f08c379a00000000000000000000000000000000000000000000000000000000081526004016118579061372c565b60405180910390fd5b61186d8383836001611fb1565b8273ffffffffffffffffffffffffffffffffffffffff1661188d82610b63565b73ffffffffffffffffffffffffffffffffffffffff16146118e3576040517f08c379a00000000000000000000000000000000000000000000000000000000081526004016118da9061369a565b60405180910390fd5b6004600082815260200190815260200160002060006101000a81549073ffffffffffffffffffffffffffffffffffffffff02191690556001600360008573ffffffffffffffffffffffffffffffffffffffff1673ffffffffffffffffffffffffffffffffffffffff168152602001908152602001600020600082825403925050819055506001600360008473ffffffffffffffffffffffffffffffffffffffff1673ffffffffffffffffffffffffffffffffffffffff16815260200190815260200160002060008282540192505081905550816002600083815260200190815260200160002060006101000a81548173ffffffffffffffffffffffffffffffffffffffff021916908373ffffffffffffffffffffffffffffffffffffffff160217905550808273ffffffffffffffffffffffffffffffffffffffff168473ffffffffffffffffffffffffffffffffffffffff167fddf252ad1be2c89b69c2b068fc378daa952ba7f163c4a11628f55a4df523b3ef60405160405180910390a4611a6f8383836001611fb7565b505050565b611a7c61148a565b73ffffffffffffffffffffffffffffffffffffffff16611a9a610ce8565b73ffffffffffffffffffffffffffffffffffffffff1614611af0576040517f08c379a0000000000000000000000000000000000000000000000000000000008152600401611ae790613798565b60405180910390fd5b565b60006002600083815260200190815260200160002060009054906101000a900473ffffffffffffffffffffffffffffffffffffffff169050919050565b6000600760009054906101000a900473ffffffffffffffffffffffffffffffffffffffff16905081600760006101000a81548173ffffffffffffffffffffffffffffffffffffffff021916908373ffffffffffffffffffffffffffffffffffffffff1602179055508173ffffffffffffffffffffffffffffffffffffffff168173ffffffffffffffffffffffffffffffffffffffff167f8be0079c531659141344cd1fd0a4f28419497f9722a3daafe3b4186f6b6457e060405160405180910390a35050565b8173ffffffffffffffffffffffffffffffffffffffff168373ffffffffffffffffffffffffffffffffffffffff161415611c64576040517f08c379a0000000000000000000000000000000000000000000000000000000008152600401611c5b90613804565b60405180910390fd5b80600560008573ffffffffffffffffffffffffffffffffffffffff1673ffffffffffffffffffffffffffffffffffffffff16815260200190815260200160002060008473ffffffffffffffffffffffffffffffffffffffff1673ffffffffffffffffffffffffffffffffffffffff16815260200190815260200160002060006101000a81548160ff0219169083151502179055508173ffffffffffffffffffffffffffffffffffffffff168373ffffffffffffffffffffffffffffffffffffffff167f17307eab39ab6107e8899845ad3d59bd9653f200f220920489ca2b5937696c3183604051611d559190612794565b60405180910390a3505050565b611d6d84848461177a565b611d7984848484611fbd565b611db8576040517f08c379a0000000000000000000000000000000000000000000000000000000008152600401611daf90613896565b60405180910390fd5b50505050565b606060405180602001604052806000815250905090565b6060611de08261143f565b6000611dea611dbe565b90506000815111611e0a5760405180602001604052806000815250611e35565b80611e1484612154565b604051602001611e25929190613493565b6040516020818303038152906040525b915050919050565b60007f01ffc9a7000000000000000000000000000000000000000000000000000000007bffffffffffffffffffffffffffffffffffffffffffffffffffffffff1916827bffffffffffffffffffffffffffffffffffffffffffffffffffffffff1916149050919050565b60008073ffffffffffffffffffffffffffffffffffffffff16611ec983611af2565b73ffffffffffffffffffffffffffffffffffffffff1614159050919050565b611f0282826040518060200160405280600081525061222c565b5050565b611f0f82611ea7565b611f4e576040517f08c379a0000000000000000000000000000000000000000000000000000000008152600401611f4590613928565b60405180910390fd5b80600660008481526020019081526020016000209080519060200190611f7592919061263d565b507ff8e1a15aba9398e019f0b49df1a4fde98ee17ae345cb5f6b5e2c27f5033e8ce782604051611fa59190612c61565b60405180910390a15050565b50505050565b50505050565b6000611fde8473ffffffffffffffffffffffffffffffffffffffff16612287565b15612147578373ffffffffffffffffffffffffffffffffffffffff1663150b7a0261200761148a565b8786866040518563ffffffff1660e01b8152600401612029949392919061399d565b602060405180830381600087803b15801561204357600080fd5b505af192505050801561207457506040513d601f19601f8201168201806040525081019061207191906139fe565b60015b6120f7573d80600081146120a4576040519150601f19603f3d011682016040523d82523d6000602084013e6120a9565b606091505b506000815114156120ef576040517f08c379a00000000000000000000000000000000000000000000000000000000081526004016120e690613896565b60405180910390fd5b805181602001fd5b63150b7a0260e01b7bffffffffffffffffffffffffffffffffffffffffffffffffffffffff1916817bffffffffffffffffffffffffffffffffffffffffffffffffffffffff19161491505061214c565b600190505b949350505050565b606060006001612163846122aa565b01905060008167ffffffffffffffff8111156121825761218161299a565b5b6040519080825280601f01601f1916602001820160405280156121b45781602001600182028036833780820191505090505b509050600082602001820190505b600115612221578080600190039150507f3031323334353637383961626364656600000000000000000000000000000000600a86061a8153600a858161220b5761220a61359f565b5b049450600085141561221c57612221565b6121c2565b819350505050919050565b61223683836123fd565b6122436000848484611fbd565b612282576040517f08c379a000000000000000000000000000000000000000000000000000000000815260040161227990613896565b60405180910390fd5b505050565b6000808273ffffffffffffffffffffffffffffffffffffffff163b119050919050565b600080600090507a184f03e93ff9f4daa797ed6e38ed64bf6a1f0100000000000000008310612308577a184f03e93ff9f4daa797ed6e38ed64bf6a1f01000000000000000083816122fe576122fd61359f565b5b0492506040810190505b6d04ee2d6d415b85acef81000000008310612345576d04ee2d6d415b85acef8100000000838161233b5761233a61359f565b5b0492506020810190505b662386f26fc10000831061237457662386f26fc10000838161236a5761236961359f565b5b0492506010810190505b6305f5e100831061239d576305f5e10083816123935761239261359f565b5b0492506008810190505b61271083106123c25761271083816123b8576123b761359f565b5b0492506004810190505b606483106123e557606483816123db576123da61359f565b5b0492506002810190505b600a83106123f4576001810190505b80915050919050565b600073ffffffffffffffffffffffffffffffffffffffff168273ffffffffffffffffffffffffffffffffffffffff16141561246d576040517f08c379a000000000000000000000000000000000000000000000000000000000815260040161246490613a77565b60405180910390fd5b61247681611ea7565b156124b6576040517f08c379a00000000000000000000000000000000000000000000000000000000081526004016124ad90613ae3565b60405180910390fd5b6124c4600083836001611fb1565b6124cd81611ea7565b1561250d576040517f08c379a000000000000000000000000000000000000000000000000000000000815260040161250490613ae3565b60405180910390fd5b6001600360008473ffffffffffffffffffffffffffffffffffffffff1673ffffffffffffffffffffffffffffffffffffffff16815260200190815260200160002060008282540192505081905550816002600083815260200190815260200160002060006101000a81548173ffffffffffffffffffffffffffffffffffffffff021916908373ffffffffffffffffffffffffffffffffffffffff160217905550808273ffffffffffffffffffffffffffffffffffffffff16600073ffffffffffffffffffffffffffffffffffffffff167fddf252ad1be2c89b69c2b068fc378daa952ba7f163c4a11628f55a4df523b3ef60405160405180910390a4612617600083836001611fb7565b5050565b6040518060600160405280600390602082028036833780820191505090505090565b82805461264990612f4e565b90600052602060002090601f01602090048101928261266b57600085556126b2565b82601f1061268457805160ff19168380011785556126b2565b828001600101855582156126b2579182015b828111156126b1578251825591602001919060010190612696565b5b5090506126bf91906126c3565b5090565b5b808211156126dc5760008160009055506001016126c4565b5090565b6000604051905090565b600080fd5b600080fd5b60007fffffffff0000000000000000000000000000000000000000000000000000000082169050919050565b612729816126f4565b811461273457600080fd5b50565b60008135905061274681612720565b92915050565b600060208284031215612762576127616126ea565b5b600061277084828501612737565b91505092915050565b60008115159050919050565b61278e81612779565b82525050565b60006020820190506127a96000830184612785565b92915050565b600081519050919050565b600082825260208201905092915050565b60005b838110156127e95780820151818401526020810190506127ce565b838111156127f8576000848401525b50505050565b6000601f19601f8301169050919050565b600061281a826127af565b61282481856127ba565b93506128348185602086016127cb565b61283d816127fe565b840191505092915050565b60006020820190508181036000830152612862818461280f565b905092915050565b6000819050919050565b61287d8161286a565b811461288857600080fd5b50565b60008135905061289a81612874565b92915050565b6000602082840312156128b6576128b56126ea565b5b60006128c48482850161288b565b91505092915050565b600073ffffffffffffffffffffffffffffffffffffffff82169050919050565b60006128f8826128cd565b9050919050565b612908816128ed565b82525050565b600060208201905061292360008301846128ff565b92915050565b612932816128ed565b811461293d57600080fd5b50565b60008135905061294f81612929565b92915050565b6000806040838503121561296c5761296b6126ea565b5b600061297a85828601612940565b925050602061298b8582860161288b565b9150509250929050565b600080fd5b7f4e487b7100000000000000000000000000000000000000000000000000000000600052604160045260246000fd5b6129d2826127fe565b810181811067ffffffffffffffff821117156129f1576129f061299a565b5b80604052505050565b6000612a046126e0565b9050612a1082826129c9565b919050565b600067ffffffffffffffff821115612a3057612a2f61299a565b5b602082029050602081019050919050565b600080fd5b6000612a59612a5484612a15565b6129fa565b90508083825260208201905060208402830185811115612a7c57612a7b612a41565b5b835b81811015612aa55780612a91888261288b565b845260208401935050602081019050612a7e565b5050509392505050565b600082601f830112612ac457612ac3612995565b5b8135612ad4848260208601612a46565b91505092915050565b60008060408385031215612af457612af36126ea565b5b6000612b028582860161288b565b925050602083013567ffffffffffffffff811115612b2357612b226126ef565b5b612b2f85828601612aaf565b9150509250929050565b600080600060608486031215612b5257612b516126ea565b5b6000612b6086828701612940565b9350506020612b7186828701612940565b9250506040612b828682870161288b565b9150509250925092565b600060039050919050565b600081905092915050565b6000819050919050565b612bb58161286a565b82525050565b6000612bc78383612bac565b60208301905092915050565b6000602082019050919050565b612be981612b8c565b612bf38184612b97565b9250612bfe82612ba2565b8060005b83811015612c2f578151612c168782612bbb565b9650612c2183612bd3565b925050600181019050612c02565b505050505050565b6000606082019050612c4c6000830184612be0565b92915050565b612c5b8161286a565b82525050565b6000602082019050612c766000830184612c52565b92915050565b600060208284031215612c9257612c916126ea565b5b6000612ca084828501612940565b91505092915050565b612cb281612779565b8114612cbd57600080fd5b50565b600081359050612ccf81612ca9565b92915050565b60008060408385031215612cec57612ceb6126ea565b5b6000612cfa85828601612940565b9250506020612d0b85828601612cc0565b9150509250929050565b7f4e487b7100000000000000000000000000000000000000000000000000000000600052602160045260246000fd5b60038110612d5557612d54612d15565b5b50565b6000819050612d6682612d44565b919050565b6000612d7682612d58565b9050919050565b612d8681612d6b565b82525050565b6000602082019050612da16000830184612d7d565b92915050565b600080fd5b600067ffffffffffffffff821115612dc757612dc661299a565b5b612dd0826127fe565b9050602081019050919050565b82818337600083830152505050565b6000612dff612dfa84612dac565b6129fa565b905082815260208101848484011115612e1b57612e1a612da7565b5b612e26848285612ddd565b509392505050565b600082601f830112612e4357612e42612995565b5b8135612e53848260208601612dec565b91505092915050565b60008060008060808587031215612e7657612e756126ea565b5b6000612e8487828801612940565b9450506020612e9587828801612940565b9350506040612ea68782880161288b565b925050606085013567ffffffffffffffff811115612ec757612ec66126ef565b5b612ed387828801612e2e565b91505092959194509250565b60008060408385031215612ef657612ef56126ea565b5b6000612f0485828601612940565b9250506020612f1585828601612940565b9150509250929050565b7f4e487b7100000000000000000000000000000000000000000000000000000000600052602260045260246000fd5b60006002820490506001821680612f6657607f821691505b60208210811415612f7a57612f79612f1f565b5b50919050565b7f4552433732313a20617070726f76616c20746f2063757272656e74206f776e6560008201527f7200000000000000000000000000000000000000000000000000000000000000602082015250565b6000612fdc6021836127ba565b9150612fe782612f80565b604082019050919050565b6000602082019050818103600083015261300b81612fcf565b9050919050565b7f4552433732313a20617070726f76652063616c6c6572206973206e6f7420746f60008201527f6b656e206f776e6572206f7220617070726f76656420666f7220616c6c000000602082015250565b600061306e603d836127ba565b915061307982613012565b604082019050919050565b6000602082019050818103600083015261309d81613061565b9050919050565b60006040820190506130b960008301856128ff565b6130c660208301846128ff565b9392505050565b7f4552433732313a2063616c6c6572206973206e6f7420746f6b656e206f776e6560008201527f72206f7220617070726f76656400000000000000000000000000000000000000602082015250565b6000613129602d836127ba565b9150613134826130cd565b604082019050919050565b600060208201905081810360008301526131588161311c565b9050919050565b7f4e487b7100000000000000000000000000000000000000000000000000000000600052603260045260246000fd5b600081905092915050565b50565b60006131a960008361318e565b91506131b482613199565b600082019050919050565b60006131ca8261319c565b9150819050919050565b7f4552433732313a20696e76616c696420746f6b656e2049440000000000000000600082015250565b600061320a6018836127ba565b9150613215826131d4565b602082019050919050565b60006020820190508181036000830152613239816131fd565b9050919050565b7f4552433732313a2061646472657373207a65726f206973206e6f74206120766160008201527f6c6964206f776e65720000000000000000000000000000000000000000000000602082015250565b600061329c6029836127ba565b91506132a782613240565b604082019050919050565b600060208201905081810360008301526132cb8161328f565b9050919050565b7f4e487b7100000000000000000000000000000000000000000000000000000000600052601160045260246000fd5b600061330c8261286a565b91507fffffffffffffffffffffffffffffffffffffffffffffffffffffffffffffffff82141561333f5761333e6132d2565b5b600182019050919050565b6000819050919050565b61335d8161334a565b82525050565b600067ffffffffffffffff82169050919050565b61338081613363565b82525050565b600061ffff82169050919050565b61339d81613386565b82525050565b600063ffffffff82169050919050565b6133bc816133a3565b82525050565b600060a0820190506133d76000830188613354565b6133e46020830187613377565b6133f16040830186613394565b6133fe60608301856133b3565b61340b60808301846133b3565b9695505050505050565b60008151905061342481612874565b92915050565b6000602082840312156134405761343f6126ea565b5b600061344e84828501613415565b91505092915050565b600081905092915050565b600061346d826127af565b6134778185613457565b93506134878185602086016127cb565b80840191505092915050565b600061349f8285613462565b91506134ab8284613462565b91508190509392505050565b7f4f776e61626c653a206e6577206f776e657220697320746865207a65726f206160008201527f6464726573730000000000000000000000000000000000000000000000000000602082015250565b60006135136026836127ba565b915061351e826134b7565b604082019050919050565b6000602082019050818103600083015261354281613506565b9050919050565b60006135548261286a565b915061355f8361286a565b9250827fffffffffffffffffffffffffffffffffffffffffffffffffffffffffffffffff03821115613594576135936132d2565b5b828201905092915050565b7f4e487b7100000000000000000000000000000000000000000000000000000000600052601260045260246000fd5b60006135d98261286a565b91506135e48361286a565b9250826135f4576135f361359f565b5b828206905092915050565b60006040820190506136146000830185612d7d565b61362160208301846128ff565b9392505050565b7f4552433732313a207472616e736665722066726f6d20696e636f72726563742060008201527f6f776e6572000000000000000000000000000000000000000000000000000000602082015250565b60006136846025836127ba565b915061368f82613628565b604082019050919050565b600060208201905081810360008301526136b381613677565b9050919050565b7f4552433732313a207472616e7366657220746f20746865207a65726f2061646460008201527f7265737300000000000000000000000000000000000000000000000000000000602082015250565b60006137166024836127ba565b9150613721826136ba565b604082019050919050565b6000602082019050818103600083015261374581613709565b9050919050565b7f4f776e61626c653a2063616c6c6572206973206e6f7420746865206f776e6572600082015250565b60006137826020836127ba565b915061378d8261374c565b602082019050919050565b600060208201905081810360008301526137b181613775565b9050919050565b7f4552433732313a20617070726f766520746f2063616c6c657200000000000000600082015250565b60006137ee6019836127ba565b91506137f9826137b8565b602082019050919050565b6000602082019050818103600083015261381d816137e1565b9050919050565b7f4552433732313a207472616e7366657220746f206e6f6e20455243373231526560008201527f63656976657220696d706c656d656e7465720000000000000000000000000000602082015250565b60006138806032836127ba565b915061388b82613824565b604082019050919050565b600060208201905081810360008301526138af81613873565b9050919050565b7f45524337323155524953746f726167653a2055524920736574206f66206e6f6e60008201527f6578697374656e7420746f6b656e000000000000000000000000000000000000602082015250565b6000613912602e836127ba565b915061391d826138b6565b604082019050919050565b6000602082019050818103600083015261394181613905565b9050919050565b600081519050919050565b600082825260208201905092915050565b600061396f82613948565b6139798185613953565b93506139898185602086016127cb565b613992816127fe565b840191505092915050565b60006080820190506139b260008301876128ff565b6139bf60208301866128ff565b6139cc6040830185612c52565b81810360608301526139de8184613964565b905095945050505050565b6000815190506139f881612720565b92915050565b600060208284031215613a1457613a136126ea565b5b6000613a22848285016139e9565b91505092915050565b7f4552433732313a206d696e7420746f20746865207a65726f2061646472657373600082015250565b6000613a616020836127ba565b9150613a6c82613a2b565b602082019050919050565b60006020820190508181036000830152613a9081613a54565b9050919050565b7f4552433732313a20746f6b656e20616c7265616479206d696e74656400000000600082015250565b6000613acd601c836127ba565b9150613ad882613a97565b602082019050919050565b60006020820190508181036000830152613afc81613ac0565b905091905056fea26469706673582212209e76fe8d5d861520ba39c140016bcb61a0a18392518ba18583fb61d2000f447864736f6c63430008080033",
  "linkReferences": {},
  "deployedLinkReferences": {}
}